:100000000C9440000C945D000C945D000C945D0019
:100010000C945D000C94A6010C945D000C945D00A2
:100020000C945D000C945D000C945D000C94B20384
:100030000C945D000C945D000C9480030C945D00A6
:100040000C945D000C945D000C945D000C945D00BC
:100050000C945D000C945D000C945D000C945D00AC
:100060000C945D000C945D00010201030104020385
:10007000020402050304030503060405040605063D
:1000800011241FBECFEFD4E0DEBFCDBF11E0A0E052
:10009000B1E0E6E8F8E002C005900D92A430B107A7
:1000A000D9F711E0A4E0B1E001C01D92AE30B10774
:1000B000E1F70E94CB010C9441040C9400003898A5
:1000C000409880E480937C0080917C00807E8093C7
:1000D0007C0087E080937A0080917A00806880932A
:1000E0007A0080917A00806480937A0080917A000F
:1000F00086FDFCCF809178009091790008958091E1
:100100007A00806480937A0080917A0086FDFCCF2B
:1001100080917800909179000895FF920F931F933A
:10012000CF93DF93C0E0D0E00C2F1C2F1F5FCE01D8
:10013000805090400E941004F82E212F2F77822F9C
:1001400090E0805090400E941004F3944F2D50E0B6
:10015000282F30E04217530729F42196C038D105E3
:1001600019F7012F802FDF91CF911F910F91FF90F1
:1001700008950E948D008093040190E0880F991FDC
:1001800080589F4F0E9418049F700895FF920F930C
:100190001F93CF93DF93EC01F09004010F2D10E03B
:1001A000C801880F991F80589F4F0E9418048C1710
:1001B0009D0711F1C801805090400E941004182F33
:1001C00021E02F0D2F7720930401822F90E0880FDC
:1001D000991FBE0180589F4F0E942C0461E0610F5F
:1001E0008091040190E080509040DF91CF911F9169
:1001F0000F91FF900C941E04DF91CF911F910F91EE
:10020000FF90089580B7806880BF3C98449A5798C3
:100210005F980E9490030E94DC010E945F000E9490
:100220000602E8E6F0E0808184608083EDE6F0E09D
:10023000808180688083789408959F92AF92BF9266
:10024000CF92DF92EF92FF920F931F93CF93DF93A2
:10025000EC010E941B02892B29F483E60E942502EF
:1002600080E058C0809105019E01281B310937FFAD
:1002700003C03195219531092330310504F1C09334
:100280000501CE01880F991F089661E170E00E9478
:10029000E803962E862F6CE00E94DC03B82EA82E71
:1002A0009CE0899F90181124C0E0D0E0092D10E057
:1002B0003CE0E32EF12CCC24C394D12C07C08091D8
:1002C000060128C02196CD30D10599F00E941B026D
:1002D000FC01CE01800F911FB7010E94FC03960123
:1002E00002C0220F331F8A95E2F72E233F23232BD0
:1002F00049F38C2F890D8C3020F08C50AA24A394C4
:10030000AB0CD82F9CE0A99ED00D11240E94250291
:100310008D2F880FDF91CF911F910F91FF90EF905C
:10032000DF90CF90BF90AF909F9008950E947F0084
:100330000E941D0190910601981739F080930601E3
:1003400060E00E94E5010C94AD0308951F920F92A6
:100350000FB60F9211242F933F934F935F936F9398
:100360007F938F939F93AF93BF93EF93FF934F9B95
:100370000E949601FF91EF91BF91AF919F918F9154
:100380007F916F915F914F913F912F910F900FBE91
:100390000F901F9018950E9402010E94B9000E94C0
:1003A00020020E94E1020E94B7020E94CC03349B0B
:1003B000F8CF0E949601F5CF0E946A0384B1836052
:1003C00084B985B1836085B908951F93CF93DF9376
:1003D000299A289890E1899FE0011124D0611BB1EE
:1003E0008BB18F608BB981E00E9477038D2F0E94C3
:1003F00071038C2F0E94710380E00E9477031BB968
:10040000289A2998DF91CF911F91089587B1817F14
:1004100087B98AB18F788AB984B18B7E84B93D98C7
:1004200085B1846185B9459A8AB18F608AB98BB1EB
:100430008F608BB908958091010190910201089518
:100440009093020180930101089580930001089523
:1004500088B1817F88B98BB18F788BB987B1817F63
:1004600087B98AB18F788AB90895880F991FFC01DE
:10047000E859FF4F4491FC01E759FF4F84916623EF
:10048000D9F1443078F09AB121E030E0042E01C077
:10049000220F0A94EAF7922B9AB99BB1209529234F
:1004A0002BB90EC097B121E030E0042E01C0220F1D
:1004B0000A94EAF7922B97B998B12095292328B985
:1004C000843068F09AB121E030E001C0220F8A95B3
:1004D000EAF7922B9AB98BB1822B8BB9089597B119
:1004E00021E030E001C0220F8A95EAF7922B97B9FC
:1004F00088B1822B88B90895443070F09AB121E018
:1005000030E0042E01C0220F0A94EAF7922B9AB928
:100510009BB1922B9BB90DC097B121E030E0042E26
:1005200001C0220F0A94EAF7922B97B998B1922B47
:1005300098B9843070F09AB121E030E001C0220F08
:100540008A95EAF7922B9AB98BB1209528232BB97B
:10055000089597B121E030E001C0220F8A95EAF7B3
:10056000922B97B988B12095282328B90895CF9365
:100570000E942802C0910A01209100018C2F90E076
:10058000C21302C060E011C021E030E00C2E02C0B6
:10059000220F331F0A94E2F74091010150910201AA
:1005A00024233523232B19F061E00E943502CF5F0D
:1005B000CC3018F4C0930A0102C010920A01CF9106
:1005C00008950F931F93CF93DF93409107012BB1B1
:1005D0002F602BB95BB121E030E00090080102C030
:1005E000220F331F0A94E2F7209525232BB930916F
:1005F0000901313031F0323041F023B12695269592
:1006000008C023B122952F7005C026B122952695EA
:10061000277031E02327822F817090E020910B0119
:1006200030910C01C1E0D0E0042E02C0CC0FDD1FE0
:100630000A94E2F7BC0102C0660F771F4A95E2F701
:10064000AB01BE01622373236417750729F18E0184
:100650000095109520233123242B352B30930C014A
:1006600020930B01892BC1F00E94C70380910101E7
:10067000909102019E0128233923232B39F4C82BA2
:10068000D92BD0930201C093010106C0802391238E
:100690009093020180930101809107018F5F809305
:1006A0000701809108018F5F80930801843068F012
:1006B00010920801809109018F5F809309018330B6
:1006C00020F01092090110920701DF91CF911F9144
:1006D0000F91089584B1886284B982E18CBD1DBCFC
:1006E00008958EBD0DB407FEFDCF8EB50895882305
:1006F00019F08CB5806402C08CB58F7B8CBD0895D9
:100700001F920F920FB60F9211248F9385B58A7F97
:1007100085BD299A8F910F900FBE0F901F9018954D
:1007200082E084BD80EF87BDEEE6F0E080818260EC
:100730008083E1E8F0E0808185608083808188604B
:1007400080838BE49CE49093890080938800EFE69B
:10075000F0E0808182608083089516BC85B5856055
:1007600085BD08951F920F920FB60F9211248F939B
:1007700080910D018F3028F480910D018F5F80935F
:100780000D018F910F900FBE0F901F901895109232
:10079000030110920D0108958091030181110BC096
:1007A00080910D018F3038F00E941B020E94C6001C
:1007B00081E0809303010895991B79E004C0991F9B
:1007C000961708F0961B881F7A95C9F780950895AB
:1007D000AA1BBB1B51E107C0AA1FBB1FA617B70767
:1007E00010F0A61BB70B881F991F5A95A9F7809583
:1007F0009095BC01CD01089597FB072E16F4009447
:1008000007D077FD09D00E94E80307FC05D03EF42D
:10081000909581959F4F0895709561957F4F0895AC
:10082000F999FECF92BD81BDF89A992780B50895B8
:10083000A8E1B0E042E050E00C943304262FF9998F
:10084000FECF1FBA92BD81BD20BD0FB6F894FA9AB3
:10085000F99A0FBE019608950E941E04272F0C944A
:100860001F04DC01CB01FC01F999FECF06C0F2BDEB
:10087000E1BDF89A319600B40D9241505040B8F75E
:060880000895F894FFCF7B
:0408860002FF0F015D
:00000001FF
