:100000000C9440000C945D000C945D000C945D0019
:100010000C945D000C9422030C945D000C945D0024
:100020000C945D000C945D000C945D000C94A00396
:100030000C945D000C945D000C946E030C945D00B8
:100040000C945D000C945D000C945D000C945D00BC
:100050000C945D000C945D000C945D000C945D00AC
:100060000C945D000C945D00010201030104020385
:10007000020402050304030503060405040605063D
:1000800011241FBECFEFD4E0DEBFCDBF11E0A0E052
:10009000B1E0E2E6F8E002C005900D92A430B107AD
:1000A000D9F711E0A4E0B1E001C01D92AD30B10775
:1000B000E1F70E9447030C942F040C940000389839
:1000C000409880E480937C0080917C00807E8093C7
:1000D0007C0087E080937A0080917A00806880932A
:1000E0007A0080917A00806480937A0080917A000F
:1000F00086FDFCCF809178009091790008958091E1
:100100007A00806480937A0080917A0086FDFCCF2B
:1001100080917800909179000895FF920F931F933A
:10012000CF93DF93C0E0D0E00C2F1C2F1F5FCE01D8
:10013000805090400E94FE03F82E212F2F77822FAF
:1001400090E0805090400E94FE03F3944F2D50E0C9
:10015000282F30E04217530729F42196C038D105E3
:1001600019F7012F802FDF91CF911F910F91FF90F1
:1001700008950E948D008093040190E0880F991FDC
:1001800080589F4F0E9406049F700895FF920F931E
:100190001F93CF93DF93EC01F09004010F2D10E03B
:1001A000C801880F991F80589F4F0E9406048C1722
:1001B0009D0719F1C801805090400E94FE03182F3E
:1001C00021E02F0D2F7720930401822F90E0880FDC
:1001D000991FBE0180589F4F0E941A0461E0610F71
:1001E0006F778091040190E080509040DF91CF9133
:1001F0001F910F91FF900C940C04DF91CF911F91F0
:100200000F91FF90089587B1817F87B98AB18F7868
:100210008AB984B18B7E84B93D9885B1846185B9F2
:10022000459A8AB18F608AB98BB18F608BB9089576
:1002300080910101909102010895909302018093B1
:100240000101089580930001089588B1817F88B9E4
:100250008BB18F788BB987B1817F87B98AB18F785D
:100260008AB90895880F991FFC01E859FF4F4491FE
:10027000FC01E759FF4F84916623D9F1443078F0AF
:100280009AB121E030E0042E01C0220F0A94EAF76F
:10029000922B9AB99BB1209529232BB90EC097B107
:1002A00021E030E0042E01C0220F0A94EAF7922BDD
:1002B00097B998B12095292328B9843068F09AB16C
:1002C00021E030E001C0220F8A95EAF7922B9AB91B
:1002D0008BB1822B8BB9089597B121E030E001C03A
:1002E000220F8A95EAF7922B97B988B1822B88B9A9
:1002F0000895443070F09AB121E030E0042E01C03E
:10030000220F0A94EAF7922B9AB99BB1922B9BB9D0
:100310000DC097B121E030E0042E01C0220F0A94F5
:10032000EAF7922B97B998B1922B98B9843070F074
:100330009AB121E030E001C0220F8A95EAF7922BB2
:100340009AB98BB1209528232BB9089597B121E054
:1003500030E001C0220F8A95EAF7922B97B988B155
:100360002095282328B90895CF930E942501C09194
:100370000801209100018C2F90E0C21302C060E0C0
:1003800011C021E030E00C2E02C0220F331F0A946E
:10039000E2F7409101015091020124233523232BE0
:1003A00019F061E00E943201CF5FCC3018F4C093A5
:1003B000080102C010920801CF9108950F931F9376
:1003C000CF93DF93409105012BB12F602BB95BB127
:1003D00021E030E00090060102C0220F331F0A9492
:1003E000E2F7209525232BB930910701313031F008
:1003F000323041F023B12695269508C023B12295CD
:100400002F7005C026B122952695277031E023274D
:10041000822F817090E02091090130910A01C1E0A2
:10042000D0E0042E02C0CC0FDD1F0A94E2F7BC011D
:1004300002C0660F771F4A95E2F7AB01BE01622347
:1004400073236417750729F18E01009510952023F9
:100450003123242B352B30930A0120930901892B5A
:10046000C1F00E94B50380910101909102019E01AB
:1004700028233923232B39F4C82BD92BD0930201FD
:10048000C093010106C080239123909302018093C1
:100490000101809105018F5F809305018091060124
:1004A0008F5F80930601843068F01092060180917E
:1004B00007018F5F80930701833020F010920701BE
:1004C00010920501DF91CF911F910F9108950E9425
:1004D000580384B1836084B985B1836085B9089578
:1004E0001F93CF93DF93299A289890E1899FE00189
:1004F0001124D0611BB18BB18F608BB981E00E9458
:1005000065038D2F0E945F038C2F0E945F0380E0A4
:100510000E9465031BB9289A2998DF91CF911F91FA
:10052000089580B7806880BF3C98449A57985F9838
:100530000E947E030E9467020E945F000E940301E6
:10054000E8E6F0E0808184608083EDE6F0E0808181
:1005500080688083789408959F92AF92BF92CF92E3
:10056000DF92EF92FF920F931F93CF93DF93EC01F3
:100570000E941801892B29F483E60E94220180E061
:1005800045C0CE01880F991F089661E170E00E9476
:10059000D603962E862F6CE00E94CA03B82EA82E92
:1005A0008CE0B89E90181124C0E0D0E0092D10E036
:1005B0003CE0E32EF12CCC24C394D12C0E941801F2
:1005C000FC01CE01800F911FB7010E94EA03960142
:1005D00002C0220F331F8A95E2F72E233F23232BDD
:1005E00021F42196CD30D10549F78C2F890D8C301F
:1005F00020F08C50AA24A394AB0CD82F9CE0A99E89
:10060000D00D11240E9422018D2F880FDF91CF91F0
:100610001F910F91FF90EF90DF90CF90BF90AF9020
:100620009F9008950E947F000E94AC0290910B0160
:10063000981739F080930B0160E00E9470020C94CF
:100640009B0308951F920F920FB60F9211242F93C0
:100650003F934F935F936F937F938F939F93AF934A
:10066000BF93EF93FF934F9B0E941203FF91EF9173
:10067000BF91AF919F918F917F916F915F914F91BA
:100680003F912F910F900FBE0F901F9018950E94D1
:1006900091020E94B9000E941D010E94DE010E9489
:1006A000B4010E94BA03349BF8CF0E941203F5CF25
:1006B00084B1886284B982E18CBD1DBC08958EBD71
:1006C0000DB407FEFDCF8EB50895882319F08CB5C3
:1006D000806402C08CB58F7B8CBD08951F920F92F1
:1006E0000FB60F9211248F9385B58A7F85BD299A05
:1006F0008F910F900FBE0F901F90189582E084BDD0
:1007000080EF87BDEEE6F0E0808182608083E1E8E3
:10071000F0E08081856080838081886080838BE4C5
:100720009CE49093890080938800EFE6F0E080815C
:1007300082608083089516BC85B5856085BD089567
:100740001F920F920FB60F9211248F9380910C017C
:100750008F3028F480910C018F5F80930C018F9172
:100760000F900FBE0F901F901895109203011092DA
:100770000C0108958091030181110BC080910C013F
:100780008F3038F00E9418010E94C60081E08093EB
:1007900003010895991B79E004C0991F961708F08A
:1007A000961B881F7A95C9F780950895AA1BBB1BD5
:1007B00051E107C0AA1FBB1FA617B70710F0A61B61
:1007C000B70B881F991F5A95A9F780959095BC0182
:1007D000CD01089597FB072E16F4009407D077FDFE
:1007E00009D00E94D60307FC05D03EF49095819570
:1007F0009F4F0895709561957F4F0895F999FECFA9
:1008000092BD81BDF89A992780B50895A8E1B0E01E
:1008100042E050E00C942104262FF999FECF1FBA34
:1008200092BD81BD20BD0FB6F894FA9AF99A0FBE19
:10083000019608950E940C04272F0C940D04DC01EE
:10084000CB01FC01F999FECF06C0F2BDE1BDF89ADB
:10085000319600B40D9241505040B8F70895F89485
:02086000FFCFC8
:0408620002FF0F0181
:00000001FF
