:103C00000C94341E0C94461E0C94461E0C94461EB6
:103C10000C94461E0C94461E0C94461E0C94461E94
:103C20000C94461E0C94461E0C94461E0C94461E84
:103C30000C94461E0C94461E0C94461E0C94461E74
:103C40000C94461E0C94461E0C94461E0C94461E64
:103C50000C94461E0C94461E0C94461E0C94461E54
:103C60000C94461E0C94461E11241FBECFEFD4E0C8
:103C7000DEBFCDBF11E0A0E0B1E001C01D92A838C9
:103C8000B107E1F70E94DD1F0C94E21F0C94001EA7
:103C900087B1817F87B98AB18F788AB984B18B7EE9
:103CA00084B93D9885B1846185B9459A8AB18F60A0
:103CB0008AB98BB18F608BB9219A299A089588B1FE
:103CC000817F88B98BB18F788BB987B1817F87B9B4
:103CD0008AB18F788AB90895399A882321F041985A
:103CE0003A9A429A0895419A3A9A429808958BB125
:103CF0008E608BB9589883B182FB882780F991E058
:103D000089270895CF93DF9300D000D0CDB7DEB7D9
:103D10001C821B821C821B8229B1207830E089B171
:103D2000807890E028173907D1F369B16078109254
:103D3000B20080E090E0462F50E029B1207830E0DA
:103D400042175307D1F34091B2001092B20069B10B
:103D500060788830910530F02B813C81240F311D33
:103D60003C832B8301968031910529F72B813C817F
:103D7000C901880F991F820F931F55E0969587956B
:103D80005A95E1F79A8389834091B20029813A815B
:103D900050E042175307C0F3862F90E029B12078F6
:103DA00030E082179307A9F429B1207830E0821718
:103DB0009307D1F369B160781092B2004091B200DC
:103DC00029813A8150E042175307C0F31092B200A4
:103DD000E3CF49B1407888E294E070E068E050E0D9
:103DE00029B1207830E042175307D1F31092B20086
:103DF000A9B1A0784091B20029813A8150E04217E0
:103E00005307C0F349B14078E72FF0E0ED5FFE4F74
:103E10002081220FA41321602083615011F47F5F61
:103E200068E001970097D9F62091070130E0322F22
:103E3000222780910601280F311D81E02A3A35455D
:103E400009F080E00F900F900F900F90DF91CF91CD
:103E500008950F931F93CF93DF93F894EB0123E022
:103E6000FB0120935700E89507B600FCFDCF20E04A
:103E700030E011E0FA01E20FF31F0081A181B0E010
:103E8000BA2FAA27A00FB11DF901EC0FFD1F0D01DC
:103E900010935700E895112407B600FCFDCF2E5F64
:103EA0003F4F2038310531F725E0FB0120935700C3
:103EB000E89507B600FCFDCF81E180935700E895B7
:103EC000DF91CF911F910F91089514B817B81AB8C8
:103ED000F8941092B100E0910101F091020109946F
:103EE00090910001992319F00E945F1E02C00E9468
:103EF0006C1E81E090910001891B80930001089560
:103F0000CAE00E94771E811105C0C150D1F70E94FE
:103F1000651FF7CF82E08093B100D3E088EE93E095
:103F2000C0E02091B200253650F01092B200019707
:103F3000009729F480E00E94701F88EE93E029B179
:103F40004C2F50E0207830E04217530719F0C9B1E8
:103F5000C078D150D111E5CF0E945F1E0E94821E11
:103F6000811108C080E00E946C1E0E94771E882389
:103F7000C9F3D3CF81E00E94701F8091030182308A
:103F800029F08330B9F40E94651F14C060910501C7
:103F900070E0762F662780910401680F711D769579
:103FA000762F66277795679580E090E048E051E0AE
:103FB0000E94291F10920301D1CF57980E94481EDA
:083FC0000E94801FF894FFCF5E
:040000050080010175
:00000001FF
